{
  "contractName": "Wallet",
  "abi": [
    {
      "inputs": [],
      "stateMutability": "nonpayable",
      "type": "constructor"
    },
    {
      "inputs": [
        {
          "internalType": "uint256",
          "name": "amount",
          "type": "uint256"
        }
      ],
      "name": "save",
      "outputs": [],
      "stateMutability": "nonpayable",
      "type": "function"
    },
    {
      "inputs": [
        {
          "internalType": "uint256",
          "name": "amount",
          "type": "uint256"
        },
        {
          "internalType": "address",
          "name": "recipient",
          "type": "address"
        }
      ],
      "name": "spend",
      "outputs": [],
      "stateMutability": "nonpayable",
      "type": "function"
    },
    {
      "inputs": [],
      "name": "balance",
      "outputs": [
        {
          "internalType": "uint256",
          "name": "",
          "type": "uint256"
        }
      ],
      "stateMutability": "view",
      "type": "function"
    }
  ],
  "bytecode": "0x6080604052736b175474e89094c44da98b954eedeac495271d0f600160006101000a81548173ffffffffffffffffffffffffffffffffffffffff021916908373ffffffffffffffffffffffffffffffffffffffff16021790555073c2cb1040220768554cf699b0d863a3cd4324ce32600260006101000a81548173ffffffffffffffffffffffffffffffffffffffff021916908373ffffffffffffffffffffffffffffffffffffffff1602179055503480156100ba57600080fd5b50336000806101000a81548173ffffffffffffffffffffffffffffffffffffffff021916908373ffffffffffffffffffffffffffffffffffffffff160217905550610ae18061010a6000396000f3fe608060405234801561001057600080fd5b50600436106100415760003560e01c80631b862027146100465780631e9f59db14610062578063b69ef8a81461007e575b600080fd5b610060600480360381019061005b91906107e2565b61009c565b005b61007c60048036038101906100779190610834565b61015a565b005b61008661049c565b6040516100939190610969565b60405180910390f35b600160009054906101000a900473ffffffffffffffffffffffffffffffffffffffff1673ffffffffffffffffffffffffffffffffffffffff166323b872dd3330846040518463ffffffff1660e01b81526004016100fb939291906108e9565b602060405180830381600087803b15801561011557600080fd5b505af1158015610129573d6000803e3d6000fd5b505050506040513d601f19601f8201168201806040525081019061014d91906107b9565b5061015781610603565b50565b60008054906101000a900473ffffffffffffffffffffffffffffffffffffffff1673ffffffffffffffffffffffffffffffffffffffff163373ffffffffffffffffffffffffffffffffffffffff16146101e8576040517f08c379a00000000000000000000000000000000000000000000000000000000081526004016101df90610949565b60405180910390fd5b6000600260009054906101000a900473ffffffffffffffffffffffffffffffffffffffff1673ffffffffffffffffffffffffffffffffffffffff166370a08231306040518263ffffffff1660e01b815260040161024591906108ce565b60206040518083038186803b15801561025d57600080fd5b505afa158015610271573d6000803e3d6000fd5b505050506040513d601f19601f82011682018060405250810190610295919061080b565b9050600260009054906101000a900473ffffffffffffffffffffffffffffffffffffffff1673ffffffffffffffffffffffffffffffffffffffff16632e1a7d4d826040518263ffffffff1660e01b81526004016102f29190610969565b600060405180830381600087803b15801561030c57600080fd5b505af1158015610320573d6000803e3d6000fd5b50505050600160009054906101000a900473ffffffffffffffffffffffffffffffffffffffff1673ffffffffffffffffffffffffffffffffffffffff1663a9059cbb83856040518363ffffffff1660e01b8152600401610381929190610920565b602060405180830381600087803b15801561039b57600080fd5b505af11580156103af573d6000803e3d6000fd5b505050506040513d601f19601f820116820180604052508101906103d391906107b9565b506000600160009054906101000a900473ffffffffffffffffffffffffffffffffffffffff1673ffffffffffffffffffffffffffffffffffffffff166370a08231306040518263ffffffff1660e01b815260040161043191906108ce565b60206040518083038186803b15801561044957600080fd5b505afa15801561045d573d6000803e3d6000fd5b505050506040513d601f19601f82011682018060405250810190610481919061080b565b905060008111156104965761049581610603565b5b50505050565b600080600260009054906101000a900473ffffffffffffffffffffffffffffffffffffffff1673ffffffffffffffffffffffffffffffffffffffff166377c7b8fc6040518163ffffffff1660e01b815260040160206040518083038186803b15801561050757600080fd5b505afa15801561051b573d6000803e3d6000fd5b505050506040513d601f19601f8201168201806040525081019061053f919061080b565b90506000600260009054906101000a900473ffffffffffffffffffffffffffffffffffffffff1673ffffffffffffffffffffffffffffffffffffffff166370a08231306040518263ffffffff1660e01b815260040161059e91906108ce565b60206040518083038186803b1580156105b657600080fd5b505afa1580156105ca573d6000803e3d6000fd5b505050506040513d601f19601f820116820180604052508101906105ee919061080b565b905081816105fc9190610995565b9250505090565b600160009054906101000a900473ffffffffffffffffffffffffffffffffffffffff1673ffffffffffffffffffffffffffffffffffffffff1663095ea7b3600260009054906101000a900473ffffffffffffffffffffffffffffffffffffffff16836040518363ffffffff1660e01b8152600401610682929190610920565b602060405180830381600087803b15801561069c57600080fd5b505af11580156106b0573d6000803e3d6000fd5b505050506040513d601f19601f820116820180604052508101906106d491906107b9565b50600260009054906101000a900473ffffffffffffffffffffffffffffffffffffffff1673ffffffffffffffffffffffffffffffffffffffff1663b6b55f25826040518263ffffffff1660e01b81526004016107309190610969565b600060405180830381600087803b15801561074a57600080fd5b505af115801561075e573d6000803e3d6000fd5b5050505050565b60008135905061077481610a66565b92915050565b60008151905061078981610a7d565b92915050565b60008135905061079e81610a94565b92915050565b6000815190506107b381610a94565b92915050565b6000602082840312156107cb57600080fd5b60006107d98482850161077a565b91505092915050565b6000602082840312156107f457600080fd5b60006108028482850161078f565b91505092915050565b60006020828403121561081d57600080fd5b600061082b848285016107a4565b91505092915050565b6000806040838503121561084757600080fd5b60006108558582860161078f565b925050602061086685828601610765565b9150509250929050565b610879816109ef565b82525050565b600061088c600a83610984565b91507f6f6e6c792061646d696e000000000000000000000000000000000000000000006000830152602082019050919050565b6108c881610a2d565b82525050565b60006020820190506108e36000830184610870565b92915050565b60006060820190506108fe6000830186610870565b61090b6020830185610870565b61091860408301846108bf565b949350505050565b60006040820190506109356000830185610870565b61094260208301846108bf565b9392505050565b600060208201905081810360008301526109628161087f565b9050919050565b600060208201905061097e60008301846108bf565b92915050565b600082825260208201905092915050565b60006109a082610a2d565b91506109ab83610a2d565b9250817fffffffffffffffffffffffffffffffffffffffffffffffffffffffffffffffff04831182151516156109e4576109e3610a37565b5b828202905092915050565b60006109fa82610a0d565b9050919050565b60008115159050919050565b600073ffffffffffffffffffffffffffffffffffffffff82169050919050565b6000819050919050565b7f4e487b7100000000000000000000000000000000000000000000000000000000600052601160045260246000fd5b610a6f816109ef565b8114610a7a57600080fd5b50565b610a8681610a01565b8114610a9157600080fd5b50565b610a9d81610a2d565b8114610aa857600080fd5b5056fea264697066735822122052d70ec82fd45eb6cbae865fae673c4ba1724e00e89925c9039e5c12c4b45e9764736f6c63430008000033",
  "immutableReferences": {},
  "source": "pragma solidity ^0.8.0;\r\n\r\nimport \"@openzeppelin/contracts/token/ERC20/IERC20.sol\";\r\n\r\ninterface IYDAI {\r\n    function deposit(uint256 _amount) external;\r\n\r\n    function withdraw(uint256 _amount) external;\r\n\r\n    function balanceOf(address _address) external view returns (uint256);\r\n\r\n    function getPricePerFullShare() external view returns (uint256);\r\n}\r\n\r\ncontract Wallet {\r\n    address admin;\r\n    IERC20 dai = IERC20(0x6B175474E89094C44Da98b954EedeAC495271d0F);\r\n    IYDAI yDai = IYDAI(0xC2cB1040220768554cf699b0d863A3cd4324ce32);\r\n\r\n    constructor() {\r\n        admin = msg.sender;\r\n    }\r\n\r\n    function save(uint256 amount) external {\r\n        dai.transferFrom(msg.sender, address(this), amount);\r\n        _save(amount);\r\n    }\r\n\r\n    function spend(uint256 amount, address recipient) external {\r\n        require(msg.sender == admin, \"only admin\");\r\n        uint256 balanceShares = yDai.balanceOf(address(this));\r\n        yDai.withdraw(balanceShares);\r\n        dai.transfer(recipient, amount);\r\n        uint256 balanceDai = dai.balanceOf(address(this));\r\n        if (balanceDai > 0) {\r\n            _save(balanceDai);\r\n        }\r\n    }\r\n\r\n    function _save(uint256 amount) internal {\r\n        dai.approve(address(yDai), amount);\r\n        yDai.deposit(amount);\r\n    }\r\n\r\n    function balance() external view returns (uint256) {\r\n        uint256 price = yDai.getPricePerFullShare();\r\n        uint256 balanceShares = yDai.balanceOf(address(this));\r\n        return balanceShares * price;\r\n    }\r\n}\r\n",
  "sourcePath": "C:\\Users\\c9y7i\\Desktop\\defiweb\\src\\contracts\\myContact.sol",
  "compiler": {
    "name": "solc",
    "version": "0.8.0+commit.c7dfd78e.Emscripten.clang"
  },
  "schemaVersion": "3.4.3",
  "updatedAt": "2021-09-20T00:13:43.859Z",
  "devdoc": {
    "kind": "dev",
    "methods": {},
    "version": 1
  },
  "userdoc": {
    "kind": "user",
    "methods": {},
    "version": 1
  }
}